{
  "transactions": [
    {
      "hash": "0x8074d8b4db35f4c25fcf4ec63c5a9ce4c5c535566288b7f91a572dc71c48af20",
      "transactionType": "CALL",
      "contractName": null,
      "contractAddress": "0x2d598ef4be496e8e932605ded4bb14a95c2f17f0",
      "function": "mintNft(string)",
      "arguments": [
        "ipfs://bafybeig37ioir76s7mg5oobetncojcm3c3hxasyd4rvid4jqhy4gkaheg4/?filename=0-PUG.json"
      ],
      "transaction": {
        "from": "0xc78808e359b4668ec9f1593c3e599a5490164248",
        "to": "0x2d598ef4be496e8e932605ded4bb14a95c2f17f0",
        "gas": "0x414c9",
        "value": "0x0",
        "input": "0xda86f4a900000000000000000000000000000000000000000000000000000000000000200000000000000000000000000000000000000000000000000000000000000057697066733a2f2f62616679626569673337696f6972373673376d67356f6f6265746e636f6a636d3363336878617379643472766964346a71687934676b61686567342f3f66696c656e616d653d302d5055472e6a736f6e000000000000000000",
        "nonce": "0x1a",
        "chainId": "0xaa36a7"
      },
      "additionalContracts": [],
      "isFixedGasLimit": false
    }
  ],
  "receipts": [
    {
      "status": "0x1",
      "cumulativeGasUsed": "0x178dd2c",
      "logs": [
        {
          "address": "0x2d598ef4be496e8e932605ded4bb14a95c2f17f0",
          "topics": [
            "0xddf252ad1be2c89b69c2b068fc378daa952ba7f163c4a11628f55a4df523b3ef",
            "0x0000000000000000000000000000000000000000000000000000000000000000",
            "0x000000000000000000000000c78808e359b4668ec9f1593c3e599a5490164248",
            "0x0000000000000000000000000000000000000000000000000000000000000000"
          ],
          "data": "0x",
          "blockHash": "0x369f2909e0f867458127e39425a2858af42742fc03065f146cc6649439045927",
          "blockNumber": "0x840da7",
          "blockTimestamp": "0x68612244",
          "transactionHash": "0x8074d8b4db35f4c25fcf4ec63c5a9ce4c5c535566288b7f91a572dc71c48af20",
          "transactionIndex": "0xc5",
          "logIndex": "0x16c",
          "removed": false
        }
      ],
      "logsBloom": "0x00000000000000000000000000000000000000000000000400000000000000000000000000000000000000000000000000000000000000000000000000020000000000000000000000000008000000000000000000000000000000000000000000000000020000000000000000000800000000000000000000000010000040000000000000000000000000000000000000000000000000000000000000000000000000000000000000000000000000000000000000000000000000000000000000000002100000000000000000000000000000000800000000000000000020000000000000000000000000000000000000000000000000000000000000000040",
      "type": "0x2",
      "transactionHash": "0x8074d8b4db35f4c25fcf4ec63c5a9ce4c5c535566288b7f91a572dc71c48af20",
      "transactionIndex": "0xc5",
      "blockHash": "0x369f2909e0f867458127e39425a2858af42742fc03065f146cc6649439045927",
      "blockNumber": "0x840da7",
      "gasUsed": "0x2ca63",
      "effectiveGasPrice": "0x1e5709",
      "from": "0xc78808e359b4668ec9f1593c3e599a5490164248",
      "to": "0x2d598ef4be496e8e932605ded4bb14a95c2f17f0",
      "contractAddress": null
    }
  ],
  "libraries": [],
  "pending": [],
  "returns": {},
  "timestamp": 1751196230,
  "chain": 11155111,
  "commit": "42b52e2"
}